:100000000C9446000C9450000C9450000C9450003A
:100010000C9450000C9450000C9450000C94500020
:100020000C9450000C9450000C9450000C94500010
:100030000C9450000C9450000C9450000C94500000
:100040000C9450000C9450000C9450000C945000F0
:100050000C9450000C9450000C9450000C945000E0
:100060000C9450000C9450000C9450000C945000D0
:100070000C9450000C9450000C9450000C945000C0
:100080000C9450000C9450000C94500011241FBE8E
:10009000CFEFD0E1DEBFCDBF0E9452000C944A03E7
:1000A0000C940000CF93DF93CDB7DEB7E8970FB67F
:1000B000F894DEBF0FBECDBF82E290E02CE1FC01E0
:1000C000208383E290E02CE0FC01208380E090E03C
:1000D000A6E9B3E489839A83AB83BC8320E030E054
:1000E0004AEF54E469817A818B819C810E94BF022E
:1000F000DC01CB018D839E83AF83B88720E030E0A5
:1001000040E85FE36D817E818F8198850E943E0289
:1001100088232CF481E090E09A8789873FC020E013
:100120003FEF4FE757E46D817E818F8198850E9474
:10013000BB0218164CF520E030E040E251E4698142
:100140007A818B819C810E94BF02DC01CB01BC01C2
:10015000CD010E944202DC01CB019A8789870FC042
:1001600088EC90E09C878B878B859C850197F1F7C5
:100170009C878B8789859A8501979A878987898546
:100180009A85009769F714C06D817E818F8198856B
:100190000E944202DC01CB019A87898789859A8572
:1001A0009E878D878D859E850197F1F79E878D8728
:1001B00083E290E024E1FC01208380E090E0A6E966
:1001C000B3E48F87988BA98BBA8B20E030E04AEF9D
:1001D00054E46F85788989899A890E94BF02DC017D
:1001E000CB018B8B9C8BAD8BBE8B20E030E040E84D
:1001F0005FE36B897C898D899E890E943E028823FA
:100200002CF481E090E0988F8F8B3FC020E03FEF8F
:100210004FE757E46B897C898D899E890E94BB02D8
:1002200018164CF520E030E040E251E46F85788903
:1002300089899A890E94BF02DC01CB01BC01CD01F2
:100240000E944202DC01CB01988F8F8B0FC088EC9B
:1002500090E09A8F898F898D9A8D0197F1F79A8F07
:10026000898F8F89988D0197988F8F8B8F89988D23
:10027000009769F714C06B897C898D899E890E94DB
:100280004202DC01CB01988F8F8B8F89988D9C8FD8
:100290008B8F8B8D9C8D0197F1F79C8F8B8F83E2D9
:1002A00090E028E1FC01208380E090E0A6E9B3E43F
:1002B0008D8F9E8FAF8FB8A320E030E04AEF54E4DB
:1002C0006D8D7E8D8F8D98A10E94BF02DC01CB01C8
:1002D00089A39AA3ABA3BCA320E030E040E85FE38E
:1002E00069A17AA18BA19CA10E943E0288232CF4D3
:1002F00081E090E09EA38DA33FC020E03FEF4FE759
:1003000057E469A17AA18BA19CA10E94BB02181697
:100310004CF520E030E040E251E46D8D7E8D8F8D14
:1003200098A10E94BF02DC01CB01BC01CD010E945B
:100330004202DC01CB019EA38DA30FC088EC90E0AC
:1003400098A78FA38FA198A50197F1F798A78FA3DE
:100350008DA19EA101979EA38DA38DA19EA1009723
:1003600069F714C069A17AA18BA19CA10E944202E5
:10037000DC01CB019EA38DA38DA19EA19AA789A785
:1003800089A59AA50197F1F79AA789A783E290E03A
:100390002CE1FC01208380E090E0A6E9B3E48BA788
:1003A0009CA7ADA7BEA720E030E04AEF54E46BA5C0
:1003B0007CA58DA59EA50E94BF02DC01CB018FA765
:1003C00098ABA9ABBAAB20E030E040E85FE36FA5A3
:1003D00078A989A99AA90E943E0288232CF481E079
:1003E00090E09CAB8BAB3FC020E03FEF4FE757E482
:1003F0006FA578A989A99AA90E94BB0218164CF585
:1004000020E030E040E251E46BA57CA58DA59EA5DF
:100410000E94BF02DC01CB01BC01CD010E9442025F
:10042000DC01CB019CAB8BAB0FC088EC90E09EABAA
:100430008DAB8DA99EA90197F1F79EAB8DAB8BA9D2
:100440009CA901979CAB8BAB8BA99CA9009769F7E2
:1004500038CE6FA578A989A99AA90E944202DC0129
:10046000CB019CAB8BAB8BA99CA998AF8FAB8FA911
:1004700098AD0197F1F798AF8FAB23CE2FD008F44A
:1004800081E0089557D088F09F5790F0B92F9927B1
:10049000B751A0F0D1F0660F771F881F991F1AF08F
:1004A000BA95C9F712C0B13081F05ED0B1E00895BD
:1004B0005BC0672F782F8827B85F39F0B93FCCF33E
:1004C000869577956795B395D9F73EF49095809585
:1004D000709561957F4F8F4F9F4F0895990F00083A
:1004E000550FAA0BE0E8FEEF16161706E807F90706
:1004F000C0F012161306E407F50798F0621B730BA1
:10050000840B950B39F40A2661F0232B242B252B21
:1005100021F408950A2609F4A140A6958FEF811DC4
:10052000811D089557FD9058440F551F59F05F3FA6
:1005300071F04795880F97FB991F61F09F3F79F005
:1005400087950895121613061406551FF2CF469587
:10055000F1DF08C0161617061806991FF1CF869509
:100560007105610508940895E894BB2766277727ED
:10057000CB0197F90895B2DF08F48FEF08950BD0FF
:1005800078C069D028F06ED018F0952309F05AC0D1
:100590005FC01124EACFC6DFA0F3959FD1F3950F7A
:1005A00050E0551F629FF001729FBB27F00DB11DF7
:1005B000639FAA27F00DB11DAA1F649F6627B00D87
:1005C000A11D661F829F2227B00DA11D621F739F70
:1005D000B00DA11D621F839FA00D611D221F749F7E
:1005E0003327A00D611D231F849F600D211D822FC5
:1005F000762F6A2F11249F5750408AF0E1F088230C
:100600004AF0EE0FFF1FBB1F661F771F881F915018
:100610005040A9F79E3F510570F014C0A6CF5F3F30
:10062000ECF3983EDCF3869577956795B795F7954B
:10063000E7959F5FC1F7FE2B880F911D96958795D3
:1006400097F9089597F99F6780E870E060E0089552
:100650009FEF80EC089500240A94161617061806DA
:100660000906089500240A941216130614060506B6
:100670000895092E0394000C11F4882352F0BB0F47
:1006800040F4BF2B11F460FF04C06F5F7F4F8F4FAA
:080690009F4F0895F894FFCF7D
:00000001FF
